:100000000C94C2010C94EA010C94EA010C94EA01EC
:100010000C94EA010C94EA010C94EA010C94EA01B4
:100020000C9462080C94EA010C94EA010C94EA0125
:100030000C94EA010C94EA010C94EA010C94EA0194
:100040000C94C0070C94EA010C9430080C940A0834
:100050000C94EA010C94EA010C94EA010C94EA0174
:100060000C94EA010C94EA01486173682000556E13
:100070006976657273616C2050756C736520446994
:100080007374616E63652057696474682C20004D39
:1000900061676951756573742C2000426F736577D1
:1000A0006176652C20004C65676F20506F77657214
:1000B0002046756E6374696F6E732C2000576879E3
:1000C0006E7465722C2000464153542C20005361FD
:1000D0006D73756E672C20004A56432C20004C47E8
:1000E0002C20005243362C20005243352C20005344
:1000F0006F6E792C200044656E6F6E2F53686172AD
:10010000702C200050616E61736F6E69632F4B61BC
:100110007365696B796F2C20004E45432F4E454324
:10012000322F4F6E6B796F2F4170706C652C2000F1
:1001300061742070696E20320052656164792074A8
:100140006F2072656365697665204952207369671F
:100150006E616C73206F662070726F746F636F6C6A
:10016000733A20005354415254202F686F6D652F0D
:10017000616C616E2F4769742F69722D72656D6FA6
:1001800074652D636C6F6E65722F61726475696E34
:100190006F2F69725F72656D6F74655F6D756C74DA
:1001A000696D6F64652F69725F72656D6F74655FED
:1001B0006D756C74696D6F64652E696E6F20667203
:1001C0006F6D2046656220203520323032360D0AB0
:1001D0005573696E67206C69627261727920766509
:1001E0007273696F6E20342E352E3000180028602F
:1001F000095802B004580258025802102D0000009D
:1002000006002628236810F4012C06F4012602803B
:100210006E000A06050026E02070100E022A060E67
:10022000020E0200410000001400268011801130EF
:1002300002900630023002006E0000001E002638D8
:10024000081C040E022A060E020E020032000000F4
:100250001D0026220B220BEE026608EE02EE028043
:100260006E0000001A0026F603BC050802BC050853
:1002700002D401004B0000001C00261F015D033E5C
:10028000023E021F015D03A06E0000000400260470
:10029000010C0304011C0704010C03006E000000A4
:1002A0000C0025800DC006B0011005B001B00100A2
:1002B000820000007573004475726174696F6E3D51
:1002C00000202B00202D005D3A20007261774952FA
:1002D00054696D696E67735B005265636569766525
:1002E00064206E6F697365206F7220616E20756E79
:1002F0006B6E6F776E20286F72206E6F7420796539
:100300007420656E61626C6564292070726F746F11
:10031000636F6C00080026002380113002900630C5
:10032000023002006E000A060000000024002700D0
:100330002A0000000000250028002B000000000813
:10034000000201000003040700000000000000009C
:100350000000000023002600290004040404040413
:100360000404020202020202030303030303010264
:100370000408102040800102040810200102040833
:100380001020520911241FBECFEFD8E0DEBFCDBF31
:1003900022E0ACE2B1E001C01D92A13FB207E1F75B
:1003A00011E0A0E0B1E0E2E0F8E202C005900D92B9
:1003B000AC32B107D9F711E0C2ECD1E004C021970B
:1003C000FE010E94F913C13CD107C9F70E948B09B5
:1003D0000C94FF130C9400002091E2023091E30290
:1003E0002817390728F48091E00281608093E002A9
:1003F0000895833081F028F4813099F08230A9F09B
:1004000008958730A9F08830C9F08430B1F4809124
:1004100080008F7D03C0809180008F778093800063
:10042000089584B58F7784BD089584B58F7DFBCF03
:100430008091B0008F778093B00008958091B000D4
:100440008F7DF9CFCF93DF93282F30E0F901E45C63
:10045000FC4F8491F901E259FC4FD491F901E65A1D
:10046000FC4FC491CC23A1F081110E94F901EC2F23
:10047000F0E0EE0FFF1FE05BFC4FA591B491EC9113
:10048000ED2381E090E009F480E0DF91CF910895C1
:1004900080E090E0FACF1F93CF93DF93282F30E0D6
:1004A000F901E45CFC4F8491F901E259FC4FD491CD
:1004B000F901E65AFC4FC491CC23A9F0162F811103
:1004C0000E94F901EC2FF0E0EE0FFF1FEE5CFC4FF5
:1004D000A591B4918FB7F894EC91111108C0D09503
:1004E000DE23DC938FBFDF91CF911F910895DE2B28
:1004F000F8CFCF93DF9390E0FC01E259FC4F2491B9
:10050000865A9C4FFC0184918823C9F090E0880FA3
:10051000991FFC01E85DFC4FA591B491FC01EE5CD4
:10052000FC4FC591D49161110DC09FB7F8948C9187
:10053000209582238C938881282328839FBFDF9175
:10054000CF910895623051F49FB7F8943C91822F77
:10055000809583238C93E8812E2BEFCF8FB7F8946F
:10056000EC912E2B2C938FBFEACF3FB7F89480915C
:10057000320190913301A0913401B091350126B53B
:10058000A89B05C02F3F19F00196A11DB11D3FBFCB
:10059000BA2FA92F982F8827BC01CD01620F711D9A
:1005A000811D911D42E0660F771F881F991F4A9594
:1005B000D1F708958F929F92AF92BF92CF92DF9220
:1005C000EF92FF926B017C010E94B5024B015C012E
:1005D000C114D104E104F104B9F00E94B502681914
:1005E00079098A099B09683E73408105910580F36A
:1005F00021E0C21AD108E108F10888EE880E83E0F4
:10060000981EA11CB11CE4CFFF90EF90DF90CF901B
:10061000BF90AF909F908F900895AF92BF92CF926E
:10062000DF92EF92FF920F931F93CF93DF936C01B2
:100630007B018B01040F151FEB015E01AE18BF0893
:10064000C017D10759F06991D601ED91FC91019045
:10065000F081E02DC6010995892B79F7C501DF915D
:10066000CF911F910F91FF90EF90DF90CF90BF90AF
:10067000AF900895FC01538D448D252F30E0842FD9
:1006800090E0821B930B541710F0CF9608950197BA
:100690000895FC01918D828D981761F0A28DAE0FA7
:1006A000BF2FB11D5D968C91928D9F5F9F73928F2E
:1006B00090E008958FEF9FEF0895FC01918D828D5A
:1006C000981731F0828DE80FF11D858D90E0089527
:1006D0008FEF9FEF0895FC01918D228D892F90E07F
:1006E000805C9F4F821B91098F739927089584E442
:1006F00091E00E946B0321E0892B09F420E0822F16
:10070000089580E090E0892B29F00E947703811101
:100710000C9400000895FC01A48DA80FB92FB11D01
:10072000A35ABF4F2C91848D90E001968F73992727
:10073000848FA689B7892C93A089B1898C91837005
:1007400080648C93938D848D981306C00288F389FE
:10075000E02D80818F7D80830895EF92FF920F932B
:100760001F93CF93DF93EC0181E0888F9B8D8C8D5D
:1007700098131AC0E889F989808185FF15C09FB751
:10078000F894EE89FF896083E889F9898081837014
:10079000806480839FBF81E090E0DF91CF911F91C3
:1007A0000F91FF90EF900895F62E0B8D10E00F5FE4
:1007B0001F4F0F731127E02E8C8D8E110CC00FB6BA
:1007C00007FCFACFE889F989808185FFF5CFCE0152
:1007D0000E948B03F1CFEB8DEC0FFD2FF11DE35A3F
:1007E000FF4FF0829FB7F8940B8FEA89FB898081D5
:1007F0008062CFCF682F84E491E00C94AD030F9317
:100800001F93CF93DF938C01D0E0C0E0F801EC0F91
:10081000FD1F6491662341F084E491E00E94AD03E2
:10082000892B11F02196F2CFCE01DF91CF911F914C
:100830000F910895CF93DF93EC01888D8823B9F051
:10084000AA89BB89E889F9898C9185FD03C08081DB
:1008500086FD0DC00FB607FCF7CF8C9185FFF2CF58
:10086000808185FFEDCFCE010E948B03E9CFDF9120
:10087000CF91089560E08EE00E944B0260E08FE02F
:100880000E944B0260E080E10E944B0280913001A7
:1008900061E0811103C080E10C944B028EE0FCCF3B
:1008A0008F929F92AF92BF92CF92DF92EF92FF9280
:1008B0004B015C010E94B5026B017C0124E0C21A6D
:1008C000D108E108F1080E94B5026C197D098E0972
:1008D0009F09681579058A059B05A8F3FF90EF909D
:1008E000DF90CF90BF90AF909F908F90089522E3BC
:1008F000FC012E9FC0012F9F900D1124480F591FFE
:100900007695679576956795CB01880F991F860F29
:10091000971F8417950750F485E0869F9001879F65
:10092000300D112481E02417350708F480E0089584
:100930004CEE5FEF0C9477044F925F926F927F9230
:100940009F92AF92BF92CF92DF92EF92FF920F935E
:100950001F93CF93DF93182F5A01922EC62FD0E00A
:10096000C251DE4F412C512C32014394C12CD12C69
:100970007601112301F19920B1F08881B50190E051
:100980000E949804002379F1CC0CDD1CEE1CFF1CA6
:10099000882311F06894C0F8440C551C661C771C21
:1009A00011502296E6CF898144E150E0B50190E0F4
:1009B0000E947704E7CFC092BE02D092BF02E092BD
:1009C000C002F092C102DF91CF911F910F91FF9071
:1009D000EF90DF90CF90BF90AF909F907F906F90FF
:1009E0005F904F9008958823B9F2C428D528E6284F
:1009F000F728D2CFCF93DF93EC01FC0133966591BA
:100A000074918091EF0190E00E949804882369F02E
:100A1000FE013596659174918091F00144E150E0BA
:100A200090E0DF91CF910C94770480E0DF91CF913B
:100A3000089522E3289FA001299F500D1124769547
:100A40006795769567959B01220F331F260F371FF9
:100A50004217530750F085E0869F9001879F300D25
:100A6000112481E02417350708F480E00895BF922F
:100A7000CF92DF92EF92FF920F931F93CF93DF936A
:100A8000109143018091E102B12C1817A0F5812F3C
:100A90008170B82E0091420101111EC0E12FF0E0DB
:100AA000EF51FE4FE584F12CCCEEDFEF882311F0FF
:100AB000C4E1D0E0C0904001D0904101CC0DDD1DDB
:100AC000BE01C7010E941905882301F181E090E071
:100AD00090933F0180933E010F5F0093420180910C
:100AE0003E0190913F010817190628F0109242012B
:100AF0001F5F109343018B2DDF91CF911F910F91B9
:100B0000FF90EF90DF90CF90BF900895CC0DDD1D4A
:100B1000BE01C7010E941905882319F082E090E008
:100B2000D7CFB6016C0F7D1FC7010E94190588231E
:100B300019F083E090E0CCCFBB24BA94DCCF809155
:100B4000EF02811102C02D98089560E00C944B02D1
:100B5000882349F08091EF02811102C02D9A0895F7
:100B600061E00C944B020C949F058F929F92AF9280
:100B7000BF92CF92DF92EF92FF920F931F93CF938A
:100B8000DF93EC018B010E94B5024B015C017C01FB
:100B90006B0188E0C80ED11CE11CF11C20E0F89428
:100BA0005B9A8A819B818230910538F0880F991F6A
:100BB000880F991F05970197F1F75B987894211199
:100BC00003C081E00E94A80588819981880E991E42
:100BD000A11CB11CF8940E94B5029B012C193D097F
:100BE0002017310780F00E949F057894DF91CF9104
:100BF0001F910F91FF90EF90DF90CF90BF90AF903B
:100C00009F908F90089521E0681579058A059B05CE
:100C100010F3C5CFECE2F1E08AE190E091838083AC
:100C200088E090E093838283539A60E073E2CF017F
:100C30000E94B50560EC78E080E090E00E945004EE
:100C400060E372E08CE291E00C94B5052F923F9244
:100C50004F925F926F927F928F929F92AF92BF92CC
:100C6000CF92DF92EF92FF920F931F93CF93DF9378
:100C7000CDB7DEB72A970FB6F894DEBF0FBECDBF53
:100C80008C014A015B01DC0112966C91862F8695DE
:100C900090E088519C4F70E00E94E51370933B01F7
:100CA00060933A012EE1269FC001279F900D1124E9
:100CB000C29664E670E00E94E51370933D01609374
:100CC0003C01539A8FB7F894409136015091370107
:100CD00060913801709139018FBFF801638174818F
:100CE0008AE391E00E94B505D80115966D917C913B
:100CF00090E080E00E945004F801F785F983D80164
:100D00001D962D903C901E971B96ED91FC911C9783
:100D1000FC83EB8319962D913C911A973A8729878A
:100D200017960D911C9130E23A83C12CD12CE12C05
:100D300050E8F52EC101B0E0A0E08D839E83AF8323
:100D4000B887A985BA852D01712C612C398137FFAF
:100D50005AC0D501C4018C219D21AE21BF21892B10
:100D60008A2B8B2B09F451C0B8018AE391E00E94D1
:100D7000B505C301B2010E945004898187FF0AC0F2
:100D8000F694E794D794C79409C089859A85821907
:100D9000930913C0B694A794979487949A8191501D
:100DA0009A839111D3CFB981B5FD3AC0E985FA850F
:100DB000E215F30551F790E080E029853A853695F4
:100DC0002795369527952817390750F5B8018AE3F6
:100DD00091E02A960FB6F894DEBF0FBECDBFDF912B
:100DE000CF911F910F91FF90EF90DF90CF90BF9028
:100DF000AF909F908F907F906F905F904F903F90BB
:100E00002F900C94B50580FCAFCF6B817C818AE379
:100E100091E00E94B5056D817E818F819885ABCF71
:100E20002A960FB6F894DEBF0FBECDBFDF91CF91EB
:100E30001F910F91FF90EF90DF90CF90BF90AF90F8
:100E40009F908F907F906F905F904F903F902F90EA
:100E50000895FC0101900020E9F73197AF01481B8C
:100E6000590BBC0184E491E00C940D038F929F9286
:100E7000AF92BF920F931F93CF93DF93CDB7DEB79F
:100E8000A1970FB6F894DEBF0FBECDBF19A24230B6
:100E900008F44AE08E010F5D1F4F842E912CB12C77
:100EA000A12CA50194010E94A913E62FB901CA0142
:100EB000EA30F4F4E05DD801EE938D01232B242B6E
:100EC000252B79F790E080E0109719F0CD010E9472
:100ED0002907A1960FB6F894DEBF0FBECDBFDF91F4
:100EE000CF911F910F91BF90AF909F908F900895D9
:100EF000E95CE1CF86E291E00C942907CF93DF9380
:100F00000E94FF03EC010E947A078C0F9D1FDF9166
:100F1000CF910895FF920F931F93CF93DF93CDB797
:100F2000DEB764970FB6F894DEBF0FBECDBF162FA5
:100F3000F42E44E150E0BC01CE0101960E949013D2
:100F40000889802F80714885598504FD02C04A8533
:100F50005B85001F0027001F21E0811101C020E0F8
:100F60006F2D812F0E949C0464960FB6F894DEBF0B
:100F70000FBECDBFDF91CF911F910F91FF900895CC
:100F80001F920F920FB60F9211242F933F938F93BE
:100F90009F93AF93BF938091360190913701A091B9
:100FA0003801B09139013091310123E0230F2D3701
:100FB00058F50196A11DB11D209331018093360192
:100FC00090933701A0933801B09339018091320199
:100FD00090913301A0913401B09135010196A11D8A
:100FE000B11D8093320190933301A0933401B093EB
:100FF0003501BF91AF919F918F913F912F910F90AC
:101000000FBE0F901F90189526E8230F0296A11D82
:10101000B11DD2CF1F920F920FB60F9211242F93B2
:101020003F934F935F936F937F938F939F93AF9370
:10103000BF93EF93FF9384E491E00E948B03FF91B1
:10104000EF91BF91AF919F918F917F916F915F9140
:101050004F913F912F910F900FBE0F901F901895B9
:101060001F920F920FB60F9211242F938F939F937D
:10107000EF93FF93E0915401F09155018081E0914D
:101080005A01F0915B0182FD1BC0908180915D014E
:101090008F5F8F7320915E01821741F0E0915D01B7
:1010A000F0E0EC5BFE4F958F80935D01FF91EF9137
:1010B0009F918F912F910F900FBE0F901F901895B9
:1010C0008081F4CF1F920F920FB60F9211242F93AD
:1010D0003F934F935F936F937F938F939F93AF93C0
:1010E000BF93CF93EF93FF93E091E301F091E4017D
:1010F000C0818091E501C8238091E6019091E701CC
:101100002091E6013091E7012F3F3F4F29F00196F2
:101110009093E7018093E6012091E101211115C030
:10112000C1114BC0813A910558F01092EA01909399
:10113000ED018093EC0181E08093EB018093E1016C
:101140001092E7011092E60138C0213099F4CC23C7
:10115000A1F1E091EB012E0F2093EB01F0E0EF51B4
:10116000FE4F8F3F910519F010F08FEF90E08587CB
:1011700082E0E4CF223009F047C0E091EB01813AF0
:10118000910510F4E73CA0F1E83C18F081E0809371
:10119000EA018091EC019091ED019093E30280933C
:1011A000E202E093E10283E08093E101E091E80153
:1011B000F091E901309709F009958091F0028823B8
:1011C00029F081E0C11180E00E94A805FF91EF9114
:1011D000CF91BF91AF919F918F917F916F915F91CF
:1011E0004F913F912F910F900FBE0F901F90189528
:1011F000C111E3CF91E09E0F9093EB01F0E0EF512E
:10120000FE4F858781E09ACF2330B9F6C111D5CF43
:1012100097CFDF92EF92FF920F931F93CF93DF93BD
:10122000EC01D62E8A017901F0E090E080E030E018
:10123000E0E0DE01AE0FB11D2C91FF5F222339F0FB
:10124000320F2E9F800D911D11241C92F0E033234C
:10125000B9F0DE1611F0F23098F0232F2695820FA8
:10126000911D632F70E00E94E513DE01A60FB11DF2
:101270003C93D8013C9131110FC06C9390E080E019
:10128000EF5FDE16B0F681E0DF91CF911F910F91F5
:10129000FF90EF90DF900895D7013C91332369F3DD
:1012A00080E0F2CFE4E4F1E01382128288EE93E072
:1012B000A0E0B0E084839583A683B78388E191E0C2
:1012C0009183808385EC90E09587848784EC90E01F
:1012D0009787868780EC90E0918B808B81EC90E003
:1012E000938B828B82EC90E0958B848B86EC90E0E4
:1012F000978B868B118E128E138E148E1092EF02A6
:10130000E1EEF1E0118281E0848389E290E0938351
:10131000828350980895CF93DF93CDB7DEB7E997D6
:101320000FB6F894DEBF0FBECDBF789484B582604F
:1013300084BD84B5816084BD85B5826085BD85B579
:10134000816085BD80916E00816080936E001092F7
:101350008100809181008260809381008091810072
:101360008160809381008091800081608093800003
:101370008091B10084608093B1008091B000816061
:101380008093B00080917A00846080937A0080918D
:101390007A00826080937A0080917A0081608093E5
:1013A0007A0080917A00806880937A001092C10060
:1013B000E0915401F091550112E01083E091500149
:1013C000F09151011082E0915201F091530180E1BE
:1013D000808310925C01E0915801F091590186E000
:1013E0008083E0915601F091570180818061808374
:1013F000E0915601F0915701808188608083E091EF
:101400005601F0915701808180688083E0915601F8
:10141000F091570180818F7D808384E691E00E9466
:101420007E071093E20184E08093E50189E290E079
:101430009093E4018093E301529881E08093F0025D
:101440001092EF021093B0001093B10084E68093E5
:10145000B3008093B4001092B2008091E101833018
:1014600011F41092E10184E08093700089E391E02F
:101470000E94FF0389E191E00E94FF0384E091E074
:101480000E94FF0386EF90E00E94FF038FEE90E042
:101490000E94FF0389EE90E00E94FF0383EE90E03C
:1014A0000E94FF038EED90E00E94FF0388ED90E024
:1014B0000E94FF038EEC90E00E94FF0387EC90E017
:1014C0000E94FF038DEB90E00E94FF0386EA90E00C
:1014D0000E94FF038BE990E00E94FF038FE890E0F9
:1014E0000E94FF038EE690E00E94FF0388E690E0F2
:1014F0000E94FF0380E391E00E947E0762E088E0A3
:101500000E94790262E089E00E94790262E08CE048
:101510000E947902109230010E943A049E012F5FCE
:101520003F4F790190E2692E712C88E00E942202DF
:10153000892B79F480913001811180C081E0809302
:1015400030010E943A046AEF70E080E090E00E946F
:10155000DA02D0903001D1100C945C138091E1013B
:10156000833011F00C9400138091EA01882309F470
:1015700068C080E48093E0021092B7021092B60235
:101580001092BB021092BA021092B9021092B802E5
:101590001092BE021092BF021092C0021092C102BD
:1015A0001092DF021092DE028091E00286FDCEC131
:1015B0001091E102812F8F7B843009F0C2C08091AD
:1015C000EF0160E073E290E00E949804882309F440
:1015D00045C18091F00190E044E150E0143009F001
:1015E0004BC060EC78E00E947704882309F436C190
:1015F0008091F10160E372E090E00E9498048823FA
:1016000009F42CC181E08093E0028091E602909180
:10161000E7029093B9028093B8028091E80290911A
:10162000E9029093BB028093BA028091E402909108
:10163000E5029093B7028093B60280C11092300108
:1016400080CF1092E0028091B6029091B702909301
:10165000E5028093E4028091BA029091BB029093DC
:10166000E9028093E8028091B8029091B9029093C8
:10167000E7028093E60280CF60E871E10E94770480
:10168000882309F4EBC043E060E284E193E00E9428
:101690008A078091BE029091BF024091C002509192
:1016A000C102242F30E03093BB022093BA029C0188
:1016B0002E3E67E8360711F583E090E09093B7027D
:1016C0008093B602852F90E09093B9028093B80280
:1016D0007092DF026092DE028AE795E00E94EC01E0
:1016E0008091E00280FF2AC129E030E03093B70208
:1016F0002093B60280628093E00220C19095891306
:1017000010C090E09093B9028093B802852F809525
:1017100048130CC088E090E09093B7028093B60223
:10172000D7CF3093B9022093B802F0CF8AE090E08F
:101730009093B7028093B6024093BA025093BB02D3
:10174000C7CF143609F08AC080EA92E00E94FA04FA
:10175000882309F483C043E060E180EA92E00E94BC
:101760008A07B090BE020B2D1091BF02BBE0CB2EBA
:10177000D12C023080E21807F9F0AEE0CA2ED12C4D
:101780000A3A9AE51907C1F0FDE0CF2ED12C0435B5
:10179000A2E31A0789F0EFE0CE2ED12C0330B1E09E
:1017A0001B0751F080E1C82ED12C0332EBEC1E0751
:1017B00019F07CE0C72ED12CB1268B2D82958F702D
:1017C000B82643E260E280EA92E00E948A078091B4
:1017D000BE029091BF02A091C002B091C1029C01D3
:1017E00064E0369527956A95E1F73093B902209326
:1017F000B8022A2F30E03093BB022093BA02282F80
:101800002A2729273B2D3F70482F4F70341719F096
:1018100034E03093E002FCE0CF16D10449F430917B
:10182000E00230613093E0021093BD020093BC02ED
:101830002B1729F08091E00284608093E00280E31E
:1018400090E09093DF028093DE02D092B702C092C4
:10185000B6028AE397E00E94EC0170C08091E10239
:10186000803209F000C141E06FE08CE892E00E9414
:101870008A0780910D0264E071E090E00E94980474
:10188000882309F4F0C08091BE029091BF02A0911C
:10189000C002B091C1029C012F7133273093B9026D
:1018A0002093B80255E0B695A795979587955A95D8
:1018B000D1F7392F3370AC0155275093BB024093B9
:1018C000BA024091E2025091E3024536544008F0DA
:1018D000C7C02091E00222602093E0022091EE0236
:1018E0002F5F2093EE0220FF19C0213019F021E074
:1018F0002093E0023091E8024091E902282F2095E0
:10190000231729F02091E00224602093E002309315
:10191000BA024093BB02392F3095337087E190E0D3
:10192000311102C084E090E09093B7028093B60238
:101930008FE090E09093DF028093DE028090B60209
:101940009090B7028114910409F06AC689ED92E083
:101950000E947E078BEC92E00E94FF036091E102FF
:1019600070E090E080E04AE00E94360787EC92E069
:101970000E947E0784EC92E00E94FF032091E20225
:101980003091E302A2E3B0E00E94D6134AE00E9445
:1019900036070E947A078091B6029091B702843090
:1019A000910531F08731910519F006E04C9709F463
:1019B00000E011E0B12CA12C8091E102181708F091
:1019C00005C6C12ED12CF601EF51FE4F458550E0E2
:1019D0009A01A2E3B0E00E94D6131B012C01A40ED1
:1019E000B51EB12FB1709B2E10FDEBC58DE20E948C
:1019F000FA03E8EE2E16E3E03E0641045104ACF48F
:101A000080E20E94FA03F4E62F16310441045104E7
:101A100064F480E20E94FA032AE0221631044104B1
:101A200051041CF480E20E94FA034AE0C201B101B1
:101A30000E943607992061F03FEFC31AD30A8091C4
:101A4000E1028C151D0421F01CF08CE20E94FA03C7
:101A5000812F800F877011F40E947A071F5FACCF2F
:101A60001092EE025BCF8CEE91E00E94FA04882384
:101A700009F446C08091E1028A3129F08A3219F0D6
:101A8000803209F03DC090E0BC016150710977FDE2
:101A9000BC017595679543E08CEE91E00E948A0742
:101AA0008091BE029091BF02A091C002B091C1028C
:101AB0009C012F7733273093BB022093BA0247E073
:101AC000B695A795979587954A95D1F79093B902C2
:101AD0008093B8022091E10230E0C901019797FD9F
:101AE000C901959587959093DF028093DE0288E186
:101AF00090E09093B7028093B60280EE91E0ABCE77
:101B000081E08093430189E793E0909341018093C2
:101B10004001109242010E943705813009F060C0F7
:101B200010E0812C912C54019091E10280914301AD
:101B30008917E0F40E943705082F0E94370501112C
:101B40000BC0813009F04CC0880C991CAA1CBB1C2E
:101B5000689480F81F5FE8CF013009F041C081111F
:101B60003FC0880C991CAA1CBB1CF4CF812F90E0AD
:101B70009093DF028093DE028092BE029092BF02B9
:101B8000A092C002B092C102882D8F7390E0909312
:101B9000BB028093BA02940116E0369527951A95F8
:101BA000E1F72F7133273093B9022093B8029401E3
:101BB00022273071232B31F4805C9F4F9093BB021E
:101BC0008093BA0280E893FC88E88093E00281E188
:101BD00090E09093B7028093B6028FEC99E03BCEF1
:101BE0008091EF0168E67AE090E00E9498048823F3
:101BF00009F448C08091F00144E150E068E773E0E7
:101C000090E00E9477048823E9F183E08093430108
:101C10008CEB91E09093410180934001109242013E
:101C20000E943705813071F50E94370581112AC065
:101C300010E0812C912C54019091E102809143019C
:101C4000891708F076C00E943705C82E1330B1F00E
:101C50000E943705082F133021F40E94370508131E
:101C600011C091E0C9125BC001110CC0880C991C15
:101C7000AA1CBB1C689480F81F5FDECF0E9437054A
:101C8000C81631F3C090E102ACE3CA1619F0B4E013
:101C9000CB1215C00091EF0110E068E273E2C801B9
:101CA0000E949804811192C06CE175E2C8010E9403
:101CB000980468EB7BE007E010E081118BC032E212
:101CC000C31609F4F7C044E2C41226C184E192E0CD
:101CD0000E94FA04882309F41FC143E060E184E113
:101CE00092E00E948A078091BE029091BF02A0916B
:101CF000C002B091C102492F5A2F6B2F7727509302
:101D0000BB024093BA0299279093B9028093B8021C
:101D100080E190E09093DF028093DE02FAC0C11070
:101D2000B1CF013009F0AECF880C991CAA1CBB1CA6
:101D3000A3CF812F90E09093DF028093DE02809208
:101D4000BE029092BF02A092C002B092C102282DA2
:101D500030E0892D90E0133200F540E84093E00236
:101D60003093BB022093BA029093B9028093B802D9
:101D7000A0FE03C088E88093E002153128F080912E
:101D8000E00280618093E00282E190E09093B702EC
:101D90008093B60283E79AE05ECD40E94093E0028B
:101DA0003093BB022093BA029093B9028093B80299
:101DB000C5019F739093BD028093BC02B7FE03C020
:101DC00088E98093E00283E190E0E0CF68E670E18B
:101DD00006E010E08091F00190E0E4E044E150E0A2
:101DE000CE1213C060ED77E00E947704882309F4D7
:101DF00093C08091F10164EF71E090E00E9498043B
:101E0000882309F489C081E8FECB0E9477048823E7
:101E100009F455CF43E06CE180E092E00E948A072C
:101E200080E88093E0028091BE029091BF02A09171
:101E3000C002B091C1024C015D01E4E0B694A794E8
:101E400097948794EA95D1F7A4019092BB0280926F
:101E5000BA024C015D01F4E1B694A794979487947B
:101E6000FA95D1F79092B9028092B80224E030E05E
:101E7000642F6F70D60E74E0569547957A95E1F70A
:101E800021503109A9F78D258F709927AA27BB27E3
:101E9000892B8A2B8B2B19F084E88093E002109316
:101EA000B7020093B6022CE130E03093DF022093BA
:101EB000DE0244CD8091E2029091E3028C3E9C458B
:101EC00008F03CCD8091EF016EE072E090E00E945E
:101ED0009804882309F432CD80910F026EE072E0FD
:101EE00090E00E949804882309F428CD81E0809333
:101EF000E0028091E6029091E7029093B90280930C
:101F0000B8028091E8029091E9029093BB0280931D
:101F1000BA0285E090E08DCB8091E102982F9F7D01
:101F2000943419F0863009F07BC088E292E00E9478
:101F3000FA04882309F474C08091E1028630B1F478
:101F400081E28093E0028091E6029091E702909313
:101F5000B9028093B8028091E8029091E9029093CF
:101F6000BB028093BA0285E190E063CB43E060E27C
:101F700088E292E00E948A079091BE028091BF029F
:101F80001091C0022091C1029093B8028093B902CF
:101F90003091E102022F0095343639F543E460E1D7
:101FA00088E292E00E948A078091BE029091BF026F
:101FB000101731F09095981719F094E09093E00283
:101FC000982F812F9093BB028093BA0280E390E018
:101FD0009093DF028093DE0286E190E09093B70257
:101FE0008093B6028EEB9AE036CC101306C0412FD8
:101FF00050E05093BB024093BA0289130CC090E0AA
:102000009093B9028093B8027092DF026092DE0270
:1020100084E190E0E3CF1093BA022093BB02F4CFA7
:102020008091E102843269F58CE392E00E94FA0427
:10203000882339F143E060E18CE392E00E948A0753
:102040001091BE028091BF028095181719F084E0AC
:102050008093E0028DE692E00E94EC01812F90E0F7
:102060009093BB028093BA021092B9021092B80208
:1020700080E190E09093DF028093DE028EE190E0B9
:10208000D8CA8091E1028434B1F480E592E00E94E4
:10209000FA04882381F043E060E280E592E00E9448
:1020A0008A0780E88093E0027092DF026092DE028D
:1020B0008DE190E0BECA8091EF018E3E08F069C0CC
:1020C0008091F00144E150E062E074E090E00E9411
:1020D0007704882309F45DC08091E102843209F01D
:1020E00058C000910F01802F8071409107015091DD
:1020F000080104FD04C04091090150910A01001F2C
:102100000027001F21E0811101C020E063E080E191
:102110000E949C0480E88093E0023091BE022091EE
:10212000BF02832F922F422F42954F702F7054E0A1
:10213000969587955A95E1F78F703F709FE09427A9
:1021400092279827391719F094E89093E00260914C
:10215000E2027091E302683F714128F49091E0023D
:1021600092609093E0024093B8021092B902A0E10D
:102170002A9F90011124282B3093BB022093BA028E
:1021800080E190E09093DF028093DE028BE190E0AB
:1021900050CA84E692E00E94FA04882371F180918B
:1021A000E102843251F543E060E184E692E00E946E
:1021B0008A078091110268E072E090E00E94980422
:1021C0008823D9F08091BE029091BF0298279F3F4B
:1021D000A1F490E09093BB028093BA0280E190E07A
:1021E0009093DF028093DE028AE190E09093B70241
:1021F0008093B60288ED94E02ECB8091E102803787
:1022000009F04FC041E068E088E792E00E948A0749
:102210008091BE029091BF02A091C002B091C10214
:10222000892B8A2B8B2BE9F541E16FE188E792E05E
:102230000E948A078090BE029090BF02A090C002C8
:10224000B090C1024FE461E188E792E00E948A0702
:102250009091BF028091C002892798278927909387
:10226000BB028093BA028092BE029092BF02A092FB
:10227000C002B092C1029092B9028092B802B092AC
:10228000BD02A092BC02ECE1F0E0F093B702E09353
:10229000B60288E390E09093DF028093DE0280E84C
:1022A0002ACA8091E102823108F438C192E3D70151
:1022B0001D929A95E9F760E043E08250990B242F34
:1022C00030E02817390794F42F513E4FF901258546
:1022D000223308F023C1F701E20FF11D30813F5F87
:1022E0003083621708F4622F4E5FE9CF1EAA1DAA41
:1022F0009E012B5C3F4FAE014A5C5F4FC7010E94BD
:102300000909882309F40AC182E3D7011D928A953D
:10231000E9F74091E1024250550B24E0822F90E012
:102320008417950794F48F519E4FFC018585823365
:1023300008F0F4C0F701E80FF11D90819F5F9083D2
:10234000D81608F4D82E2E5FE9CF1CAA1BAA9E012E
:102350002D5C3F4FAE014C5C5F4F6D2DC7010E945D
:102360000909882309F4DAC08091E10286951FEFFC
:10237000180FCBA8CC2011F01EEF180F212F30E042
:102380003093DF022093DE02C901019797FD4F963B
:102390009C0145E0359527954A95E1F738AF2FAB7D
:1023A0003FA939AFADA8A11003C0CC2009F4B6C035
:1023B0009CA982E3989F100111248EA8889E400159
:1023C0001124A89E50011124C89E6001112433E0FD
:1023D000432E512C812F113208F080E29BA99923C2
:1023E00009F47CC0A2E0B0E0B093B702A093B602BB
:1023F00000E020E0A601642D0E949C048091BE02B2
:102400009091BF02A091C002B091C10224E0529EFF
:10241000F0011124E253FD4F80839183A283B383A3
:1024200030E4430E1052539449AD451598F620916F
:10243000E2023091E302203D3740F0F4EFA9F8AD1D
:10244000EE0FFF1FEE0FFF1FE253FD4F00811181C2
:10245000228133814091EA025091EB026091EC02BB
:102460007091ED02041715072607370729F420910C
:10247000E00221602093E0028093EA029093EB0255
:10248000A093EC02B093ED022091EF0192E3299F1B
:10249000900111243093C3022093C2028091F00175
:1024A000899FC00111249093C5028093C402909229
:1024B000CB028092CA023092CD022092CC02A114AB
:1024C000B10419F1C114D10499F4B092C702A092D9
:1024D000C6023092C9022092C80230CAE1E0F0E0A0
:1024E000F093B702E093B60200E021E0A50183CFAC
:1024F000D092C902C092C8029092C7028092C602CE
:10250000B092CB02A092CA0219CA9092C7028092DE
:10251000C602D092C902C092C80210CAE091E1027C
:10252000E63008F40BCA11E025EC3DE94CE151E836
:10253000F0E00AE0612F70E0CB0102968E179F0752
:102540007CF58F519E4FDC011D968C916F517E4F13
:10255000DB011D966C91809F6001112498E0699FBA
:10256000D0011124CA16DB06C8F0609FB001112407
:10257000A8E08A9FC0011124DD24D394681779074D
:1025800010F482E0D82E63E971E080E091E00E94CF
:1025900099139B01AC012D251F5FCCCFD12CF3CF1C
:1025A0002093BE023093BF024093C0025093C102F9
:1025B0007092DF026092DE021092B7021092B602B1
:1025C000BDC981EC92E00E94FF0313CA0E947A0702
:1025D00087EB92E00E94FF039501A2E3B0E00E9426
:1025E000D6134AE00E94360784EB92E00E947E07F1
:1025F0000E947A078091E101833011F41092E10189
:1026000080E090E0892B11F40C94950A0E947703E6
:10261000882311F40C94920A0E9400000C94920AF0
:102620008091E101833011F41092E101092C000C3A
:10263000AA08BB084AE0C501B401B7FE0BC08DE291
:102640000E94FA0366277727CB01681979098A095E
:102650009B094AE00E94360789E291E00E9429071F
:102660006091B8027091B90290E080E04AE00E9467
:10267000360789E291E00E9429076091BA027091C1
:10268000BB0290E080E04AE00E94360789E291E0D8
:102690000E9429076091BE027091BF028091C00222
:1026A0009091C1024AE00E94360788E291E00E94C0
:1026B00029070E947A07A4CF89E00E942202892B71
:1026C000A1F444E150E064E173E0C7010E9490137B
:1026D00042E85DE666EA79E5C7010E94260668EEF3
:1026E00073E080E090E00E94DA028CE00E94220217
:1026F000892B09F085CF44E150E064E173E0C70124
:102700000E94901342E85DE66EEB71E4C7010E94FF
:10271000260668EE73E080E090E00E94DA0270CF57
:10272000FB01DC0102C005900D9241505040D8F7EA
:102730000895DB018F939F930E94CB13BF91AF91BC
:10274000A29F800D911DA39F900DB29F900D11240B
:102750000895A1E21A2EAA1BBB1BFD010DC0AA1FE2
:10276000BB1FEE1FFF1FA217B307E407F50720F0FA
:10277000A21BB30BE40BF50B661F771F881F991F75
:102780001A9469F760957095809590959B01AC01BE
:10279000BD01CF0108950E94D613A59F900DB49F4F
:1027A000900DA49F800D911D11240895A29FB0014A
:1027B000B39FC001A39F700D811D1124911DB29F75
:1027C000700D811D1124911D0895AA1BBB1B51E1A1
:1027D00007C0AA1FBB1FA617B70710F0A61BB70B91
:1027E000881F991F5A95A9F780959095BC01CD0136
:1027F0000895EE0FFF1F0590F491E02D0994F894D1
:02280000FFCF08
:102802001B00269E0002049E0029029E0007010072
:102812006E00000000000000AD030D033A031A042D
:0C2822006B0349035D030D0A003B00003E
:00000001FF
