:100000000C94D8010C9400020C9400020C94000291
:100010000C9400020C9400020C9400020C94000258
:100020000C9470080C9400020C9400020C940002D2
:100030000C9400020C9400020C9400020C94000238
:100040000C94CE070C9400020C943E080C941808F3
:100050000C9400020C9400020C9400020C94000218
:100060000C9400020C940002486173682000556EE5
:100070006976657273616C2050756C736520446994
:100080007374616E63652057696474682C20004D39
:1000900061676951756573742C2000426F736577D1
:1000A0006176652C20004C65676F20506F77657214
:1000B0002046756E6374696F6E732C2000576879E3
:1000C0006E7465722C2000464153542C20005361FD
:1000D0006D73756E672C20004A56432C20004C47E8
:1000E0002C20005243362C20005243352C20005344
:1000F0006F6E792C200044656E6F6E2F53686172AD
:10010000702C200050616E61736F6E69632F4B61BC
:100110007365696B796F2C20004E45432F4E454324
:10012000322F4F6E6B796F2F4170706C652C2000F1
:1001300061742070696E20320052656164792074A8
:100140006F2072656365697665204952207369671F
:100150006E616C73206F662070726F746F636F6C6A
:10016000733A20005354415254202F686F6D652F0D
:10017000616C616E2F4769742F69722D72656D6FA6
:1001800074652D636C6F6E65722F61726475696E34
:100190006F2F69725F72656D6F74655F6D756C74DA
:1001A000696D6F64652F69725F72656D6F74655FED
:1001B0006D756C74696D6F64652E696E6F20667203
:1001C0006F6D2041707220313220323032360D0A8C
:1001D0005573696E67206C69627261727920766509
:1001E0007273696F6E20342E352E3000180028602F
:1001F000095802B004580258025802102D0000009D
:1002000006002628236810F4012C06F4012602803B
:100210006E005B06050026E02070100E022A060E16
:10022000020E0200410000001400268011801130EF
:1002300002900630023002006E0000001E002638D8
:10024000081C040E022A060E020E020032000000F4
:100250001D0026220B220BEE026608EE02EE028043
:100260006E0000001A0026F603BC050802BC050853
:1002700002D401004B0000001C00261F015D033E5C
:10028000023E021F015D03A06E0000000400260470
:10029000010C0304011C0704010C03006E000000A4
:1002A0000C0025800DC006B0011005B001B00100A2
:1002B000820000007573004475726174696F6E3D51
:1002C00000202B00202D005D3A20007261774952FA
:1002D00054696D696E67735B005265636569766525
:1002E00064206E6F697365206F7220616E20756E79
:1002F0006B6E6F776E20286F72206E6F7420796539
:100300007420656E61626C6564292070726F746F11
:10031000636F6C00080026002380113002900630C5
:10032000023002006E005B06496E76616C696420E3
:10033000696E70757420666F726D61742E205573CE
:10034000653A20616464726573737C636F6D6D617F
:100350006E640000000000240027002A0000000056
:1003600000250028002B000000000800020100000A
:10037000030407000000000000000000000000234C
:1003800000260029000404040404040404020202F8
:1003900002020203030303030301020408102040C6
:1003A00080010204081020010204081020006009E6
:1003B00011241FBECFEFD8E0DEBFCDBF23E0AEE4F7
:1003C000B1E001C01D92A931B207E1F711E0A0E050
:1003D000B1E0ECE4F2E302C005900D92AE34B10757
:1003E000D9F711E0C8EDD1E004C02197FE010E94C9
:1003F0002117C73DD107C9F70E9499090C94241908
:100400000C9400002091040330910503281739074C
:1004100028F4809102038160809302030895833061
:1004200081F028F4813099F08230A9F00895873066
:10043000A9F08830C9F08430B1F4809180008F7DBC
:1004400003C0809180008F7780938000089584B5E9
:100450008F7784BD089584B58F7DFBCF8091B000E8
:100460008F778093B00008958091B0008F7DF9CF91
:10047000CF93DF93EFE6F3E08491E1EAF3E0D491E8
:10048000EDE8F3E0C491CC23A1F081110E940F02AA
:10049000EC2FF0E0EE0FFF1FE558FC4FA591B49153
:1004A000EC91ED2381E090E009F480E0DF91CF91C1
:1004B000089580E090E0FACF1F93CF93DF93282F29
:1004C00030E0F901E959FC4F8491F901E756FC4FFE
:1004D000D491F901EB57FC4FC491CC23A9F0162F0E
:1004E00081110E940F02EC2FF0E0EE0FFF1FE35A84
:1004F000FC4FA591B4918FB7F894EC91111108C0FD
:10050000D095DE23DC938FBFDF91CF911F910895AB
:10051000DE2BF8CFCF93DF9390E0FC01E756FC4F42
:1005200024918B579C4FFC0184918823C9F090E063
:10053000880F991FFC01ED5AFC4FA591B491FC0165
:10054000E35AFC4FC591D49161110DC09FB7F89447
:100550008C91209582238C938881282328839FBFA8
:10056000DF91CF910895623051F49FB7F8943C9198
:10057000822F809583238C93E8812E2BEFCF8FB72A
:10058000F894EC912E2B2C938FBFEACF3FB7F894C1
:100590008091580190915901A0915A01B0915B014D
:1005A00026B5A89B05C02F3F19F00196A11DB11DCE
:1005B0003FBFBA2FA92F982F8827BC01CD01620F0A
:1005C000711D811D911D42E0660F771F881F991FC5
:1005D0004A95D1F708958F929F92AF92BF92CF9292
:1005E000DF92EF92FF926B017C010E94C6024B01E9
:1005F0005C01C114D104E104F104B9F00E94C60207
:10060000681979098A099B09683E7340810591053B
:1006100080F321E0C21AD108E108F10888EE880EC3
:1006200083E0981EA11CB11CE4CFFF90EF90DF90F7
:10063000CF90BF90AF909F908F900895AF92BF9250
:10064000CF92DF92EF92FF920F931F93CF93DF939E
:100650006C017B018B01040F151FEB015E01AE18CD
:10066000BF08C017D10759F06991D601ED91FC91EF
:100670000190F081E02DC6010995892B79F7C5011C
:10068000DF91CF911F910F91FF90EF90DF90CF906E
:10069000BF90AF900895FC01538D448D252F30E01D
:1006A000842F90E0821B930B541710F0CF9608957F
:1006B00001970895FC01918D828D981761F0A28DAC
:1006C000AE0FBF2FB11D5D968C91928D9F5F9F7372
:1006D000928F90E008958FEF9FEF08952FB7F894D1
:1006E00080915C0190915D01A0915E01B0915F01EC
:1006F0002FBF80936E0190936F01A0937001B09310
:10070000710186E691E00E945A0397FF26C02FB739
:10071000F89480915C0190915D01A0915E01B0918F
:100720005F012FBF40916E0150916F016091700188
:1007300070917101841B950BA60BB70B40916A0158
:1007400050916B0160916C0170916D018417950758
:10075000A607B707B0F28FEF9FEF0895FC01918DC8
:10076000828D981731F0828DE80FF11D858D90E014
:1007700008958FEF9FEF0895FC01918D228D892FB1
:1007800090E0805C9F4F821B91098F739927089599
:1007900086E691E00E94BC0321E0892B09F420E069
:1007A000822F089580E090E0892B29F00E94C803F1
:1007B00081110C9400000895FC01A48DA80FB92F9D
:1007C000B11DA35ABF4F2C91848D90E001968F7379
:1007D0009927848FA689B7892C93A089B1898C9198
:1007E000837080648C93938D848D981306C00288E7
:1007F000F389E02D80818F7D80830895EF92FF92B1
:100800000F931F93CF93DF93EC0181E0888F9B8D33
:100810008C8D98131AC0E889F989808185FF15C0ED
:100820009FB7F894EE89FF896083E889F989808110
:100830008370806480839FBF81E090E0DF91CF91DF
:100840001F910F91FF90EF900895F62E0B8D10E001
:100850000F5F1F4F0F731127E02E8C8D8E110CC070
:100860000FB607FCFACFE889F989808185FFF5CFBB
:10087000CE010E94DC03F1CFEB8DEC0FFD2FF11DBB
:10088000E35AFF4FF0829FB7F8940B8FEA89FB89F8
:1008900080818062CFCF682F86E691E00C94FE03C2
:1008A0000F931F93CF93DF938C01D0E0C0E0F8014A
:1008B000EC0FFD1F6491662341F086E691E00E94F3
:1008C000FE03892B11F02196F2CFCE01DF91CF915B
:1008D0001F910F910895CF93DF93EC01888D8823AA
:1008E000B9F0AA89BB89E889F9898C9185FD03C093
:1008F000808186FD0DC00FB607FCF7CF8C9185FF78
:10090000F2CF808185FFEDCFCE010E94DC03E9CFDD
:10091000DF91CF91089560E08EE00E945C0260E07C
:100920008FE00E945C0260E080E10E945C028091A6
:10093000560161E0811103C080E10C945C028EE0FD
:10094000FCCF8F929F92AF92BF92CF92DF92EF92A5
:10095000FF924B015C010E94C6026B017C0124E006
:10096000C21AD108E108F1080E94C6026C197D097B
:100970008E099F09681579058A059B05A8F3FF90E4
:10098000EF90DF90CF90BF90AF909F908F900895A1
:1009900022E3FC012E9FC0012F9F900D1124480FD0
:1009A000591F7695679576956795CB01880F991FA6
:1009B000860F971F8417950750F485E0869F900156
:1009C000879F300D112481E02417350708F480E05B
:1009D00008954CEE5FEF0C94C8044F925F926F92B3
:1009E0007F929F92AF92BF92CF92DF92EF92FF924F
:1009F0000F931F93CF93DF93182F5A01922EC62F78
:100A0000D0E0C05FDD4F412C512C32014394C12C0A
:100A1000D12C7601112301F19920B1F08881B50123
:100A200090E00E94E904002379F1CC0CDD1CEE1C5F
:100A3000FF1C882311F06894C0F8440C551C661CF8
:100A4000771C11502296E6CF898144E150E0B50130
:100A500090E00E94C804E7CFC092E002D092E10289
:100A6000E092E202F092E302DF91CF911F910F91A9
:100A7000FF90EF90DF90CF90BF90AF909F907F90CE
:100A80006F905F904F9008958823B9F2C428D528BD
:100A9000E628F728D2CFCF93DF93EC01FC01339601
:100AA000659174918091110290E00E94E90488237D
:100AB00069F0FE013596659174918091120244E1CE
:100AC00050E090E0DF91CF910C94C80480E0DF917A
:100AD000CF91089522E3289FA001299F500D112452
:100AE00076956795769567959B01220F331F260FA4
:100AF000371F4217530750F085E0869F9001879F6C
:100B0000300D112481E02417350708F480E00895A2
:100B1000BF92CF92DF92EF92FF920F931F93CF93EA
:100B2000DF931091650180910303B12C1817A0F594
:100B3000812F8170B82E0091640101111EC0E12F38
:100B4000F0E0ED5FFD4FE584F12CCCEEDFEF882384
:100B500011F0C4E1D0E0C0906201D0906301CC0DEF
:100B6000DD1DBE01C7010E946A05882301F181E0F5
:100B700090E090936101809360010F5F00936401A6
:100B800080916001909161010817190628F0109278
:100B900064011F5F109365018B2DDF91CF911F9131
:100BA0000F91FF90EF90DF90CF90BF900895CC0D04
:100BB000DD1DBE01C7010E946A05882319F082E08D
:100BC00090E0D7CFB6016C0F7D1FC7010E946A0568
:100BD000882319F083E090E0CCCFBB24BA94DCCF1B
:100BE00080911103811102C02D98089560E00C944A
:100BF0005C02882349F080911103811102C02D9A73
:100C0000089561E00C945C020C94F0058F929F9221
:100C1000AF92BF92CF92DF92EF92FF920F931F930A
:100C2000CF93DF93EC018B010E94C6024B015C0164
:100C30007C016B0188E0C80ED11CE11CF11C20E096
:100C4000F8945B9A8A819B818230910538F0880FF5
:100C5000991F880F991F05970197F1F75B98789472
:100C6000211103C081E00E94F90588819981880ED5
:100C7000991EA11CB11CF8940E94C6029B012C195C
:100C80003D092017310780F00E94F0057894DF912C
:100C9000CF911F910F91FF90EF90DF90CF90BF9079
:100CA000AF909F908F90089521E0681579058A058F
:100CB0009B0510F3C5CFEEE4F1E08AE190E091836B
:100CC000808388E090E093838283539A60E073E2AC
:100CD000CF010E94060660EC78E080E090E00E9480
:100CE000A10460E372E08EE491E00C940606FC013E
:100CF00001900020E9F73197AF01481B590BBC0167
:100D000086E691E00C941E038F929F92AF92BF9261
:100D10000F931F93CF93DF93CDB7DEB7A1970FB695
:100D2000F894DEBF0FBECDBF19A2423008F44AE0EE
:100D30008E010F5D1F4F842E912CB12CA12CA5018B
:100D400094010E949A16E62FB901CA01EA30F4F420
:100D5000E05DD801EE938D01232B242B252B79F711
:100D600090E080E0109719F0CD010E947706A196DF
:100D70000FB6F894DEBF0FBECDBFDF91CF911F91AC
:100D80000F91BF90AF909F908F900895E95CE1CF55
:100D90008CE291E00C947706CF93DF930E9450048D
:100DA000EC010E94C8068C0F9D1FDF91CF91089522
:100DB000FF920F931F93CF93DF93CDB7DEB7649766
:100DC0000FB6F894DEBF0FBECDBF162FF42E44E150
:100DD00050E0BC01CE0101960E947E160889802F4A
:100DE00080714885598504FD02C04A855B85001FD6
:100DF0000027001F21E0811101C020E06F2D812F0D
:100E00000E94ED0464960FB6F894DEBF0FBECDBF0E
:100E1000DF91CF911F910F91FF9008950F931F9332
:100E2000CF93DF93EC0188819981009759F02A8153
:100E30003B812617370730F081E0DF91CF911F917A
:100E40000F9108958B016F5F7F4F0E944C180097A0
:100E500059F0998388831B830A832C813D81232B3E
:100E600059F7FC011082E8CF80E0E7CFCF93DF9302
:100E7000EC0188819981009711F00E94C3171982B3
:100E800018821D821C821B821A82DF91CF910895E5
:100E9000CF93DF93EC0170E060E00E940E078111B8
:100EA00005C0CE01DF91CF910C9436071D821C82C4
:100EB0006EE271E088819981DF91CF910C941D19C8
:100EC0009F92AF92BF92CF92DF92EF92FF920F93D9
:100ED0001F93CF93DF93EC016B015A017901241723
:100EE000350720F48B2D5901E42EF82E1982188233
:100EF0001B821A821D821C82CE010E944807D601E5
:100F000014960D911C91A016B10658F5E016F10645
:100F100008F48701D601ED91FC911197E00FF11FC4
:100F200090801082ED90FC90EA0CFB1CE114F1041F
:100F300071F0F70101900020E9F731975F01AE18D9
:100F4000BF08B501CE010E940E07811117C0CE0166
:100F50000E943607F60180819181080F191FD80180
:100F60009C92CE01DF91CF911F910F91FF90EF9056
:100F7000DF90CF90BF90AF909F900895BD82AC82DC
:100F8000B701888199810E941D19E4CFFC018081FD
:100F90009181009711F00C94C31708951F920F923E
:100FA0000FB60F9211242F933F938F939F93AF937C
:100FB000BF9380915C0190915D01A0915E01B09121
:100FC0005F013091570123E0230F2D3758F501962B
:100FD000A11DB11D2093570180935C0190935D0189
:100FE000A0935E01B0935F018091580190915901E7
:100FF000A0915A01B0915B010196A11DB11D809392
:10100000580190935901A0935A01B0935B01BF918D
:10101000AF919F918F913F912F910F900FBE0F90A5
:101020001F90189526E8230F0296A11DB11DD2CF5F
:101030001F920F920FB60F9211242F933F934F934D
:101040005F936F937F938F939F93AF93BF93EF9330
:10105000FF9386E691E00E94DC03FF91EF91BF9140
:10106000AF919F918F917F916F915F914F913F9140
:101070002F910F900FBE0F901F9018951F920F92F7
:101080000FB60F9211242F938F939F93EF93FF939B
:10109000E0917601F09177018081E0917C01F091FF
:1010A0007D0182FD1BC0908180917F018F5F8F73D6
:1010B00020918001821741F0E0917F01F0E0EA5930
:1010C000FE4F958F80937F01FF91EF919F918F91BC
:1010D0002F910F900FBE0F901F9018958081F4CF25
:1010E0001F920F920FB60F9211242F933F934F939D
:1010F0005F936F937F938F939F93AF93BF93CF93A0
:10110000EF93FF93E0910502F0910602C081809178
:101110000702C823809108029091090220910802D9
:10112000309109022F3F3F4F29F001969093090219
:101130008093080220910302211115C0C1114BC0F8
:10114000813A910558F010920C0290930F0280930F
:101150000E0281E080930D02809303021092090237
:101160001092080238C0213099F4CC23A1F1E0910B
:101170000D022E0F20930D02F0E0ED5FFD4F8F3F2B
:10118000910519F010F08FEF90E0858782E0E4CFB1
:10119000223009F047C0E0910D02813A910510F428
:1011A000E73CA0F1E83C18F081E080930C028091CC
:1011B0000E0290910F029093050380930403E09335
:1011C000030383E080930302E0910A02F0910B0293
:1011D000309709F0099580911203882329F081E066
:1011E000C11180E00E94F905FF91EF91CF91BF916D
:1011F000AF919F918F917F916F915F914F913F91AF
:101200002F910F900FBE0F901F901895C111E3CF33
:1012100091E09E0F90930D02F0E0ED5FFD4F85870A
:1012200081E09ACF2330B9F6C111D5CF97CFDF92A5
:10123000EF92FF920F931F93CF93DF93EC01D62E83
:101240008A017901F0E090E080E030E0E0E0DE014A
:10125000AE0FB11D2C91FF5F222339F0320F2E9F6C
:10126000800D911D11241C92F0E03323B9F0DE169D
:1012700011F0F23098F0232F2695820F911D632FE5
:1012800070E00E940D17DE01A60FB11D3C93D8013E
:101290003C9131110FC06C9390E080E0EF5FDE165F
:1012A000B0F681E0DF91CF911F910F91FF90EF9009
:1012B000DF900895D7013C91332369F380E0F2CFAA
:1012C000E6E6F1E01382128288EE93E0A0E0B0E05F
:1012D00084839583A683B7838EE191E09183808395
:1012E00085EC90E09587848784EC90E097878687EB
:1012F00080EC90E0918B808B81EC90E0938B828BE3
:1013000082EC90E0958B848B86EC90E0978B868BBB
:10131000118E128E138E148E10921103E3E0F2E000
:10132000118281E0848389E290E0938382835098E4
:101330000895CF93DF93CDB7DEB7C955D1090FB666
:10134000F894DEBF0FBECDBF789484B5826084BDB3
:1013500084B5816084BD85B5826085BD85B58160B9
:1013600085BD80916E00816080936E001092810037
:1013700080918100826080938100809181008160F2
:1013800080938100809180008160809380008091B3
:10139000B10084608093B1008091B000816080933F
:1013A000B00080917A00846080937A0080917A0006
:1013B000826080937A0080917A00816080937A00C5
:1013C00080917A00806880937A001092C100E09149
:1013D0007601F091770112E01083E0917201F091B3
:1013E00073011082E0917401F091750180E18083B6
:1013F00010927E01E0917A01F0917B0186E080837A
:10140000E0917801F0917901808180618083E091A1
:101410007801F0917901808188608083E091780182
:10142000F0917901808180688083E0917801F0916A
:10143000790180818F7D808384E691E00E94CC06D3
:101440001093040284E08093070289E290E0909375
:10145000060280930502529881E080931203109255
:1014600011031093B0001093B10084E68093B30091
:101470008093B4001092B20080910302833011F483
:101480001092030284E08093700089E391E00E944F
:10149000500489E191E00E94500484E091E00E94B0
:1014A000500486EF90E00E9450048FEE90E00E947E
:1014B000500489EE90E00E94500483EE90E00E9478
:1014C00050048EED90E00E94500488ED90E00E9460
:1014D00050048EEC90E00E94500487EC90E00E9453
:1014E00050048DEB90E00E94500486EA90E00E9448
:1014F00050048BE990E00E9450048FE890E00E9435
:1015000050048EE690E00E94500488E690E00E942D
:10151000500480E391E00E94CC0662E088E00E94E3
:101520008A0262E089E00E948A0262E08CE00E9406
:101530008A02109256010E948B049E012F5F3F4F3A
:1015400029010E943802892B79F48091560181117A
:1015500080C081E0809356010E948B046AEF70E0A6
:1015600080E090E00E94EB02B0905601B1100C9424
:101570007A1380910302833011F00C941E13809132
:101580000C02882309F468C080E48093020310925F
:10159000D9021092D8021092DD021092DC02109251
:1015A000DB021092DA021092E0021092E102109235
:1015B000E2021092E3021092010310920003809164
:1015C000020386FDD0C110910303812F8F7B8430ED
:1015D00009F0C4C08091110260E073E290E00E94C3
:1015E000E904882309F447C18091120290E044E1A4
:1015F00050E0143009F04BC060EC78E00E94C80461
:10160000882309F438C18091130260E372E090E00E
:101610000E94E904882309F42EC181E0809302032B
:1016200080910803909109039093DB028093DA0282
:1016300080910A0390910B039093DD028093DC026A
:1016400080910603909107039093D9028093D8026A
:1016500082C11092560180CF109202038091D8026D
:101660009091D90290930703809306038091DC0246
:101670009091DD0290930B0380930A038091DA022C
:101680009091DB02909309038093080380CF60E878
:1016900071E10E94C804882309F4EDC043E060E2D0
:1016A00084E193E00E94D8062091E0029091E1024B
:1016B0006091E2028091E302462F50E05093DD02F8
:1016C0004093DC02422F592F4E3E37E8530719F55D
:1016D00023E030E03093D9022093D80290E0909339
:1016E000DB028093DA0280E290E090930103809322
:1016F00000038AE795E00E9402028091020380FFC6
:101700002AC129E030E03093D9022093D8028062C8
:101710008093020320C19095291310C030E03093CC
:10172000DB022093DA02982F909569130CC088E0B1
:1017300090E09093D9028093D802D5CF5093DB02EA
:101740004093DA02F0CF2AE030E03093D9022093C0
:10175000D8026093DC028093DD02C5CF143609F015
:101760008AC080EA92E00E944B05882309F483C076
:1017700043E060E180EA92E00E94D806D090E00267
:101780000D2D1091E102BBE0EB2EF12C023080E236
:101790001807F9F0AEE0EA2EF12C0A3A9AE519079B
:1017A000C1F0FDE0EF2EF12C0435A2E31A0789F019
:1017B000EFE0EE2EF12C0330B1E01B0751F080E199
:1017C000E82EF12C0332EBEC1E0719F07CE0E72E3B
:1017D000F12CD1268D2D82958F70D82643E260E2C0
:1017E00080EA92E00E94D8068091E0029091E102A6
:1017F000A091E202B091E3029C0164E03695279546
:101800006A95E1F73093DB022093DA022A2F30E069
:101810003093DD022093DC02282F2A2729273D2D33
:101820003F70482F4F70341719F034E030930203A3
:10183000FCE0EF16F10449F430910203306130937B
:1018400002031093DF020093DE022B1729F0809130
:10185000020384608093020380E390E0909301038D
:1018600080930003F092D902E092D8028AE397E0D5
:101870000E94020270C080910303803209F000C10F
:1018800041E06FE08CE892E00E94D80680912F0240
:1018900064E071E090E00E94E904882309F4F0C05C
:1018A0008091E0029091E102A091E202B091E30206
:1018B0009C012F7133273093DB022093DA0255E02D
:1018C000B695A795979587955A95D1F7392F337087
:1018D000AC0155275093DD024093DC024091040394
:1018E000509105034536544008F0C7C020910203CB
:1018F000226020930203209110032F5F2093100396
:1019000020FF19C0213019F021E02093020330910B
:101910000A0340910B03282F2095231729F02091CB
:1019200002032460209302033093DC024093DD0223
:10193000392F3095337087E190E0311102C084E097
:1019400090E09093D9028093D8028FE090E090933A
:10195000010380930003C090D802D090D902C11433
:10196000D10409F07BC689ED92E00E94CC068BEC95
:1019700092E00E9450046091030370E090E080E0E8
:101980004AE00E94840687EC92E00E94CC0684EC38
:1019900092E00E9450042091040330910503A2E3D9
:1019A000B0E00E94FE164AE00E9484060E94C8062B
:1019B0008091D8029091D9028430910531F087311D
:1019C000910519F006E04C9709F400E011E0F12CC4
:1019D000E12C80910303181708F016C6C12ED12CF4
:1019E000F601ED5FFD4F458550E09A01A2E3B0E0BE
:1019F0000E94FE164B015C01E40EF51EB12FB17082
:101A00007B2E10FDFCC58DE20E944B04E8EE8E1685
:101A1000E3E09E06A104B104ACF480E20E944B0412
:101A2000F4E68F169104A104B10464F480E20E94EC
:101A30004B042AE082169104A104B1041CF480E254
:101A40000E944B044AE0C501B4010E94840677203D
:101A500061F03FEFC31AD30A209103032C151D0434
:101A600021F01CF08CE20E944B04812F800F8770C4
:101A700011F40E94C8061F5FACCF109210035BCF19
:101A80008CEE91E00E944B05882309F446C08091BA
:101A900003038A3129F08A3219F0803209F03DC0FF
:101AA00090E0BC016150710977FDBC0175956795A7
:101AB00043E08CEE91E00E94D8068091E002909184
:101AC000E102A091E202B091E3029C012F7733275B
:101AD0003093DD022093DC0247E0B695A7959795F9
:101AE00087954A95D1F79093DB028093DA02209193
:101AF000030330E0C901019797FDC90195958795CA
:101B0000909301038093000388E190E09093D902C1
:101B10008093D80280EE91E0ABCE81E080936501A6
:101B200089E793E0909363018093620110926401CE
:101B30000E948805813009F063C010E0C12CD12CCF
:101B4000760190910303809165018917E0F40E946A
:101B50008805082F0E94880501110BC0813009F00B
:101B60004FC0CC0CDD1CEE1CFF1C6894C0F81F5F3E
:101B7000E8CF013009F044C0811142C0CC0CDD1C1B
:101B8000EE1CFF1CF4CF812F90E090930103809313
:101B90000003C092E002D092E102E092E202F092F1
:101BA000E3028C2D8F7390E09093DD028093DC0232
:101BB000960116E0369527951A95E1F72F71332790
:101BC0003093DB022093DA02960122273071232B17
:101BD00031F4805C9F4F9093DD028093DC0280E8BB
:101BE00080930203D3FE03C088E88093020381E15F
:101BF00090E09093D9028093D8028FEC99E038CE90
:101C00008091110268E67AE090E00E94E90488235E
:101C100009F448C08091120244E150E068E773E0A3
:101C200090E00E94C8048823E9F183E08093650175
:101C30008CEB91E0909363018093620110926401B8
:101C40000E948805813071F50E94880581112AC0A3
:101C500010E0C12CD12C7601909103038091650195
:101C6000891708F076C00E948805A82E1330B1F0BD
:101C70000E948805082F133021F40E94880508135C
:101C800011C031E0A3125BC001110CC0CC0CDD1CF3
:101C9000EE1CFF1C6894C0F81F5FDECF0E94880511
:101CA000A81631F3F09003038CE3F81619F094E0D2
:101CB000F91215C00091110210E068E273E2C80148
:101CC0000E94E904811192C06CE175E2C8010E9492
:101CD000E90468EB7BE007E010E081118BC0B2E221
:101CE000FB1609F4F3C0E4E2FE1222C184E192E0A3
:101CF0000E944B05882309F41BC143E060E184E1A5
:101D000092E00E94D8068091E0029091E102A091B9
:101D1000E202B091E302492F5A2F6B2F772750939D
:101D2000DD024093DC0299279093DB028093DA0274
:101D300080E190E09093010380930003F6C0A1102E
:101D4000B1CF013009F0AECFCC0CDD1CEE1CFF1C76
:101D5000A3CF812F90E09093010380930003C09262
:101D6000E002D092E102E092E202F092E3022C2D36
:101D700030E08D2D90E0133200F540E840930203EF
:101D80003093DD022093DC029093DB028093DA0231
:101D9000E0FE03C088E880930203153128F08091AB
:101DA000020380618093020382E190E09093D90264
:101DB0008093D80283E79AE05BCD40E94093020329
:101DC0003093DD022093DC029093DB028093DA02F1
:101DD000C7019F739093DF028093DE02F7FE03C07A
:101DE00088E98093020383E190E0E0CF68E670E148
:101DF00006E010E08091120290E0A4E044E150E09F
:101E0000FA1213C060ED77E00E94C804882309F439
:101E10008FC08091130264EF71E090E00E94E904AA
:101E2000882309F485C081E8F9CB0E94C80488237F
:101E300009F455CF43E06CE180E092E00E94D806BF
:101E400080E8809302038091E0029091E102A091EA
:101E5000E202B091E3026C017D01E4E0F694E794C4
:101E6000D794C794EA95D1F7A601D092DD02C0922B
:101E7000DC026C017D01F4E1F694E794D794C794F9
:101E8000FA95D1F7D092DB02C092DA0224E030E07A
:101E9000642F6F70B60E74E0569547957A95E1F70A
:101EA00021503109A9F78B258F709927AA27BB27C5
:101EB000892B8A2B8B2B19F084E8809302031093D3
:101EC000D9020093D8028CE190E041CD80910403C7
:101ED000909105038C3E9C4508F03DCD8091110208
:101EE0006EE072E090E00E94E904882309F433CDAB
:101EF000809131026EE072E090E00E94E904882354
:101F000009F429CD81E08093020380910803909128
:101F100009039093DB028093DA0280910A03909187
:101F20000B039093DD028093DC0285E090E08CCB84
:101F300080910303982F9F7D943419F0863009F027
:101F40007DC088E292E00E944B05882309F476C0A8
:101F5000809103038630B1F481E280930203809183
:101F60000803909109039093DB028093DA02809139
:101F70000A0390910B039093DD028093DC0285E1CC
:101F800090E062CB43E060E288E292E00E94D806F3
:101F90009091E0028091E1021091E2022091E3022F
:101FA0009093DA028093DB0230910303022F0095B5
:101FB000343639F543E460E188E292E00E94D806C5
:101FC0008091E0029091E102101731F090959817FE
:101FD00019F094E090930203982F812F9093DD02E3
:101FE0008093DC0280E390E09093010380930003F0
:101FF00086E190E09093D9028093D8028EEB9AE02C
:1020000037CC101306C0412F50E05093DD024093AF
:10201000DC0289130EC090E09093DB028093DA0219
:1020200080E290E0909301038093000384E190E0CC
:10203000E1CF1093DC022093DD02F2CF8091030305
:10204000843269F58CE392E00E944B05882339F1D4
:1020500043E060E18CE392E00E94D8061091E00238
:102060008091E1028095181719F084E080930203B3
:102070008DE692E00E940202812F90E09093DD02B3
:102080008093DC021092DB021092DA0280E190E091
:1020900090930103809300038EE190E0D5CA809174
:1020A00003038434C1F480E592E00E944B05882349
:1020B00091F043E060E280E592E00E94D80680E87B
:1020C0008093020380E290E09093010380930003E9
:1020D0008DE190E0B9CA809111028E3E08F06AC08D
:1020E0008091120244E150E062E074E090E00E94CE
:1020F000C804882309F45EC080910303843209F088
:1021000059C000910F01802F8071409107015091BB
:10211000080104FD04C04091090150910A01001F0B
:102120000027001F21E0811101C020E063E080E171
:102130000E94ED0480E8809302039091E002809178
:10214000E102292F382F482F42954F708F7054E0AD
:10215000369527955A95E1F72F70392F3F709FE0FC
:10216000942798279227391719F094E8909302033F
:102170006091040370910503683F714128F49091C8
:1021800002039260909302034093DA021092DB0202
:10219000A0E18A9FC0011124822B9093DD028093DD
:1021A000DC0280E190E090930103809300038BE1D7
:1021B00090E04ACA84E692E00E944B05882371F1C0
:1021C00080910303843251F543E060E184E692E0BC
:1021D0000E94D8068091330268E072E090E00E948D
:1021E000E9048823D9F08091E0029091E1029827D8
:1021F0009F3FA1F490E09093DD028093DC0280E1A8
:1022000090E090930103809300038AE190E0909323
:10221000D9028093D80288ED94E02ACB8091030301
:10222000803709F04FC041E068E088E792E00E9403
:10223000D8068091E0029091E102A091E202B09173
:10224000E302892B8A2B8B2BE9F541E16FE188E7CB
:1022500092E00E94D806C090E002D090E102E090A7
:10226000E202F090E3024FE461E188E792E00E942D
:10227000D8069091E1028091E20289279827892768
:102280009093DD028093DC02C092E002D092E102E2
:10229000E092E202F092E302D092DB02C092DA0214
:1022A000F092DF02E092DE028CE190E09093D9029E
:1022B0008093D80288E390E0909301038093000319
:1022C00080E826CA80910303823108F443C192E377
:1022D000F20111929A95E9F760E043E08250990B80
:1022E000242F30E0281739079CF42D5F3D4FD9018A
:1022F0001D962C91223308F02DC1F201E20FF11D41
:1023000030813F5F3083621708F4622F4E5FE8CF61
:1023100026961FAE26971FAE9E01215C3F4FAE0151
:102320004B5B5F4FC2010E941709882309F412C159
:1023300082E3F20111928A95E9F74091030342503A
:10234000550B24E0822F90E0841795079CF48D5F55
:102350009D4FDC011D968C91823308F0FBC0F20189
:10236000E80FF11D90819F5F9083B81608F4B82E96
:102370002E5FE8CF19AE1BAA9E012D5C3F4FAE0128
:10238000475C5F4F6B2DC2010E941709882309F437
:10239000E1C08091030386951FEF180FCBA8CC20D6
:1023A00011F01EEF180F812F90E09093010380939E
:1023B00000037C01B1E0EB1AF108F7FE04C07C01D8
:1023C000EEE1EE0EF11C05E0F594E7940A95E1F7D5
:1023D0002796EFAE2797AFACA11003C0CC2009F42D
:1023E000B9C069AC82E3689E3001112426968FAC97
:1023F0002697889E40011124A89E50011124C89E52
:1024000060011124B3E02B2E312C812F113208F002
:1024100080E29BA9992309F47DC022E030E030934B
:10242000D9022093D80200E020E0A601622D0E948C
:10243000ED044091E0025091E1026091E20270915E
:10244000E302B4E03B9EF0011124E051FD4F4083D4
:10245000518362837383E0E42E0E105233942796E7
:10246000FFAD2797F31588F680910403909105033B
:10247000803D9740E8F4F701EE0FFF1FEE0FFF1FBE
:10248000E051FD4F008111812281338180910C0345
:1024900090910D03A0910E03B0910F030817190737
:1024A0002A073B0729F4809102038160809302038D
:1024B00040930C0350930D0360930E0370930F032E
:1024C0002091110292E3299F900111243093E5029B
:1024D0002093E40280911202899FC00111249093FD
:1024E000E7028093E6029092ED028092EC027092F5
:1024F000EF026092EE02A114B10419F1C114D104EB
:1025000099F4B092E902A092E8027092EB02609214
:10251000EA0221CAA1E0B0E0B093D902A093D802A8
:1025200000E021E0A50182CFD092EB02C092EA0246
:102530009092E9028092E802B092ED02A092EC0241
:102540000ACA9092E9028092E802D092EB02C0920D
:10255000EA0201CAE0910303E63008F4FCC911E085
:1025600025EC3DE94CE151E8F0E00AE0612F70E034
:10257000CB0102968E179F077CF58D5F9D4FDC0186
:102580001D968C916D5F7D4FDB011D966C91809F38
:102590007001112498E0699FD0011124EA16FB060E
:1025A000C8F0609FB0011124A8E08A9FC0011124E7
:1025B000FF24F3946817790710F462E0F62E63E9BC
:1025C00071E080E091E00E948A169B01AC012F250A
:1025D0001F5FCCCFF12CF3CF2093E0023093E102C8
:1025E0004093E2025093E30280E290E09093010373
:1025F000809300031092D9021092D802ACC981ECEA
:1026000092E00E94500402CA0E94C80687EB92E042
:102610000E9450049701A2E3B0E00E94FE164AE037
:102620000E94840684EB92E00E94CC060E94C806B9
:1026300080910302833011F41092030280E090E055
:10264000892B11F40C94A10A0E94C803882311F469
:102650000C94A10A0E9400000C949D0A8091030230
:10266000833011F4109203020D2C000CEE08FF08C9
:102670004AE0C701B601F7FE0BC08DE20E944B0491
:1026800066277727CB016C197D098E099F094AE0DF
:102690000E9484068FE291E00E9477066091DA0240
:1026A0007091DB0290E080E04AE00E9484068FE2B5
:1026B00091E00E9477066091DC027091DD0290E06B
:1026C00080E04AE00E9484068FE291E00E94770653
:1026D0006091E0027091E1028091E2029091E30248
:1026E0004AE00E9484068EE291E00E9477060E94F2
:1026F000C806A4CF86E691E00E94BC03181619060E
:102700002CF486E691E00E945A03F4CF86E691E02D
:102710000E94BC03181619060CF0D6C121961FAEF4
:102720001EAE219723961FAE1EAE239725961FAE91
:102730001EAE2597CE01CF960E9448070E946E03D9
:1027400025960EAD1FAD259797FD20C08A309105C7
:10275000E9F089831A820F5F1F4FB801CE01CF962F
:102760000E940E07882351F321962EAD3FAD21978D
:1027700025968EAD9FAD2597B201820F931F0E94C3
:102780001D1925961FAF0EAF2597D8CF2196AEAC59
:10279000BFAC2197A114B10429F0750101151105F1
:1027A00009F0FDC025968EAD9FAD2597892B09F4C4
:1027B000ACC121960EAD1FAD21976CE770E0C8014A
:1027C0000E941219009709F4A0C19C01201B310B33
:1027D0008901121613060CF098C150E040E0BE01CA
:1027E000615C7F4FCE01C9960E94600725962EAD91
:1027F0003FAD2597A8014F5F5F4FBE01615C7F4FE2
:10280000CE01C3960E94600750E040E070E060E0B7
:1028100089AD9AAD0E948A15162F28967FAF28970A
:102820002E968FAF2E972F969FAF2F9750E040E0B8
:1028300070E060E08BA99CA90E948A1529966FAF71
:10284000299760967FAF609761968FAF6197629688
:102850009FAF6297812F28969FAD28979C012227D2
:10286000912F9095232B19F028969FAD28974C0116
:102870002996AFAC2997BA2CB09444E150E064E1BA
:1028800073E0C2010E947E166B81862F869590E0D0
:1028900088519C4F70E00E940D1770935301609314
:1028A00052013EE1369FC001379F900D1124C29620
:1028B00064E670E00E940D17709355016093540117
:1028C000539A8FB7F89440915C0150915D016091EB
:1028D0005E0170915F018FBF6C817D8182E591E027
:1028E0000E9406066E817F8190E080E00E94A10434
:1028F000888927968FAF27972E843F84AC85BD8526
:102900002D96BFAFAEAF2D976A847B84E885F9859D
:102910002B96FFAFEEAF2B9700E2C12CD12CE12C10
:1029200030E8F32EC101B0E0A0E066968CAF9DAF19
:10293000AEAFBFAF6697C301B0E0A0E06A968CAFC0
:102940009DAFAEAFBFAF6A972796AFAD2797A7FFF2
:10295000CBC0D501C4018C219D21AE21BF21892B83
:102960008A2B8B2B09F4C2C02B966EAD7FAD2B97B3
:1029700082E591E00E9406066A966CAD7DAD8EAD53
:102980009FAD6A970E94A1042796BFAD2797B7FF16
:1029900042C0F694E794D794C79441C0760167018A
:1029A0008FEFC81AD80AD7018C91082E000C990B0A
:1029B0000E947516892B91F7015011090A0D1B1DF4
:1029C000F8018081082E000C990B0E947516892B46
:1029D00031F00E151F0518F001501109F1CF0F5FEE
:1029E0001F4FA8014E195F0925965FAF4EAF25977F
:1029F000AE14BF0420F4B701C5010E940919219645
:102A0000EEADFFAD219725968EAD9FAD2597E80FD2
:102A1000F91F1082C7CEB694A7949794879401505B
:102A200009F092CF27969FAD279795FD17C0C30158
:102A3000821993092614370411F490E080E076940B
:102A40006794769467946816790640F42B966EAD79
:102A50007FAD2B9782E591E00E94060681E391E02D
:102A60000E9477064AE0612F28967FAD28972E9620
:102A70008FAD2E972F969FAD2F970E94840680E4EE
:102A800091E00E9477064AE029966FAD29976096FB
:102A90007FAD609761968FAD619762969FAD6297AB
:102AA0000E9484068CE491E00E9477060E94C8068A
:102AB000CE01C3960E94C607CE01C9960E94C607E2
:102AC000CE01CF960E94C6070E943802892B09F0DA
:102AD0001DCE109256010E948B046AEF70E080E0D8
:102AE00090E00E94EB02AACD80FC3ECF2D966EAD09
:102AF0007FAD2D9782E591E00E94060666966CAD4B
:102B00007DAD8EAD9FAD66973DCF88E293E00E948C
:102B1000CC06D6CFB0E0A0E0E0E9F5E10C94C81611
:102B20005C016B017A016115710519F0FB0191835C
:102B30008083E114F10449F0C7010297839728F0DC
:102B400060E070E0CB019CC05E01E5012196F501DB
:102B50001081812F90E00E947516892BA9F71D32F4
:102B600009F056C02196F501118101E0E114F1044C
:102B700009F4AEC0F0E1EF16F10409F08EC0103395
:102B800041F488818F7D883509F083C019812296B0
:102B90000260E0E1EE2EF12C88248A94982CA82C77
:102BA000FFE0BF2E20E060E070E0CB0127010F2C9A
:102BB000000C66087708FE0150ED352E310E39E025
:102BC000331538F43FEB310F3A31A0F549EC342E90
:102BD000310E3E141F04BCF52F3FB9F08616970640
:102BE000A806B90670F1A30192010E948A16232D4E
:102BF00030E050E040E0620F731F841F951F6217A2
:102C0000730784079507E8F021E021961081D3CF60
:102C10001B3221F4E5012296F501118100E0A6CFD7
:102C200078E0E72EF12C88248A94982CA82C6FE168
:102C3000B62EB8CF3FE9310F3A3128F439EA332EB6
:102C4000C7CF2FEFE2CFC114D10431F02223E9F036
:102C50002197F601D183C08300FF07C0909580952E
:102C6000709561957F4F8F4F9F4F2F3F49F482E2C0
:102C700090E090931403809313036FEF7FEFCB01E9
:102C8000CDB7DEB7E1E10C94E41601FFE5CF229762
:102C9000E0CF10E3E114F10419F23AE0E316F10495
:102CA000E9F080E1E816F10409F473CFE8E0EE16EC
:102CB000F10409F4B8CF6FEF7FEFCB0197010F2C30
:102CC000000C440B550B0E949A1649015A016ACF19
:102CD000103309F456CF9AE0E92EF12C89E9882EB9
:102CE000982CA82C89E1B82E5DCF91110C948716F1
:102CF000803219F089508550C8F70895FB01DC0136
:102D000002C005900D9241505040D8F70895992780
:102D100088270895DB018F939F930E94BC16BF9173
:102D2000AF91A29F800D911DA39F900DB29F900D1A
:102D300011240895A1E21A2EAA1BBB1BFD010DC090
:102D4000AA1FBB1FEE1FFF1FA217B307E407F5075B
:102D500020F0A21BB30BE40BF50B661F771F881F37
:102D6000991F1A9469F760957095809590959B01CD
:102D7000AC01BD01CF0108950E94FE16A59F900DE4
:102D8000B49F900DA49F800D911D112408952F9242
:102D90003F924F925F926F927F928F929F92AF92EB
:102DA000BF92CF92DF92EF92FF920F931F93CF9338
:102DB000DF93CDB7DEB7CA1BDB0B0FB6F894DEBFCF
:102DC0000FBECDBF09942A88398848885F846E84F5
:102DD0007D848C849B84AA84B984C884DF80EE803F
:102DE000FD800C811B81AA81B981CE0FD11D0FB648
:102DF000F894DEBF0FBECDBFED010895A29FB001D4
:102E0000B39FC001A39F700D811D1124911DB29F1E
:102E1000700D811D1124911D0895AA1BBB1B51E14A
:102E200007C0AA1FBB1FA617B70710F0A61BB70B3A
:102E3000881F991F5A95A9F780959095BC01CD01DF
:102E40000895EE0FFF1F0590F491E02D09940F9364
:102E50001F93CF93DF938230910510F482E090E0CE
:102E6000E0911703F091180330E020E0B0E0A0E01B
:102E7000309799F42115310509F44AC0281B390B04
:102E800024303105D8F58A819B816115710589F15E
:102E9000FB0193838283FE0111C040815181028135
:102EA000138148175907E0F04817590799F410970C
:102EB00061F012960C93129713961C933296CF01E1
:102EC000DF91CF911F910F910895009317031093F5
:102ED0001803F4CF2115310551F04217530738F08C
:102EE000A901DB019A01BD01DF01F801C1CFEF01AA
:102EF000F9CF9093180380931703CDCFFE01E20F13
:102F0000F31F819391932250310939832883D7CFBE
:102F10002091150330911603232B41F420911601C3
:102F2000309117013093160320931503209114015B
:102F3000309115012115310541F42DB73EB740916F
:102F4000180150911901241B350BE0911503F091E4
:102F50001603E217F307A0F42E1B3F0B28173907BF
:102F600078F0AC014E5F5F4F2417350748F04E0FE5
:102F70005F1F5093160340931503819391939FCF46
:102F8000F0E0E0E09CCFCF93DF930097E9F0FC0105
:102F9000329713821282A0911703B0911803ED01AA
:102FA00030E020E01097A1F420813181820F931F3F
:102FB00020911503309116032817390709F061C0D5
:102FC000F0931603E0931503DF91CF910895EA0182
:102FD000CE17DF07E8F54A815B819E014115510557
:102FE000B1F7E901FB83EA8349915991C40FD51FD9
:102FF000EC17FD0761F4808191810296840F951F83
:10300000E90199838883828193819B838A83F0E09D
:10301000E0E012968D919C9113970097B9F52D9150
:103020003C911197CD010296820F931F20911503B9
:10303000309116032817390739F6309751F5109259
:10304000180310921703B0931603A0931503BCCF77
:10305000D383C28340815181840F951FC817D9073C
:1030600061F44E5F5F4F88819981480F591F5183EA
:1030700040838A819B81938382832115310509F0E6
:10308000B0CFF0931803E09317039ECFFD01DC014E
:10309000C0CF13821282D7CFB0E0A0E0E2E5F8E122
:1030A0000C94C9168C01009751F4CB010E9427178C
:1030B0008C01C801CDB7DEB7E0E10C94E516FC0148
:1030C000E60FF71F9C0122503109E217F30708F4BD
:1030D0009DC0D901CD91DC911197C617D70798F003
:1030E000C530D10530F3CE0104978617970708F352
:1030F000C61BD70B2297C193D1936D937C93CF01BD
:103100000E94C317D6CF5B01AC1ABD0A4C018C0ECE
:103110009D1EA0911703B0911803512C412CF12C46
:10312000E12C109731F580911503909116038815C5
:10313000990509F05CC04616570608F058C0809102
:10314000140190911501009741F48DB79EB74091FD
:10315000180150911901841B950BE817F90708F025
:1031600055C0F0931603E0931503F9017183608352
:10317000A0CF8D919C91119712966C9012971396F7
:103180007C901397A815B90559F56C0142E0C40E5F
:10319000D11CCA14DB0420F1AC014A195B09DA0125
:1031A0001296159780F06282738251834083D90111
:1031B0006D937C93E114F10471F0D7011396FC93A5
:1031C000EE93129776CF22968C0F9D1FF901918373
:1031D0008083F301EFCFF0931803E093170369CFD7
:1031E0004816590608F42C017D01D3019ACFCB0172
:1031F0000E9427177C01009749F0AE01B8010E9498
:103200000919C8010E94C317870153CF10E000E0DD
:1032100050CFFB01DC0102C001900D9241505040A3
:10322000D8F70895FC018191861721F08823D9F7FA
:10323000992708953197CF010895FB01DC01019092
:0C3240000D920020E1F70895F894FFCFF4
:10324C001B00269E0002049E0029029E000701001E
:10325C006E00000000001903800000000000FE0357
:10326C001E034B036B04BC035A03AE030D0A003B55
:10327C000053656E7420416464726573733D5B002A
:0E328C005D20436F6D6D616E643D5B005D0003
:00000001FF
